:1000000095EF01F0F76A140FF66E000EF722090063
:10001000F5501200313233413435364237383943E6
:100020002A302344F76A340FF66E000EF7220900D7
:10003000F5501200303030303000496E6772657311
:1000400061206C6120436C6176650000434C415631
:100050004520434F5252454354410000434C4156C2
:100060004520494E434F52524543544100000C53E2
:10007000495354454D4120424C4F51554541444F01
:100080000000EA6A1E0EE96EEF500EE0030E016EEC
:10009000006A002EFED7012EFBD73C0E006E002E0C
:1000A000FED700D0EF2EF2D712002338F00B006EEF
:1000B0000F0E8C1400108C6E00008C8000D000D0CD
:1000C00000008C9012008350006E00380F0B016E00
:1000D00012000F0E9514F009956E8C8400008C8030
:1000E0000000F1DF01C023F08C9000008C8000D074
:1000F000EADF01C022F08C900F0E9514956E233824
:10010000006EF00E001600502210016E8DEF00F010
:100110009590959295948C92DCD701C022F001BE07
:10012000FBD78C9220B08C8200008C9400008C90C5
:100130002138226E0F0E221622C023F0B6DF215086
:100140000F0B226E236EB1DF1200280E1A6E0C0EFA
:100150001B6E010E1C6E060E1D6E8C908C928C9484
:100160000F0E9514956E9590959295940F0E1E6EA8
:1001700088DF010E196E1950030808E3030E236E81
:1001800094DF050E1E6E7DDF192AF5D7020E236E51
:100190008CDF050E1E6E75DF196A195003080DE31A
:1001A000036A19501A0FE96E000E0320EA6EEFCFB2
:1001B00021F0206AADDF192AF0D7B9EF01F0BAEFCC
:1001C00001F0196A042A0450210850E20750FC0F7C
:1001D00012E2040F3BEF01F0FE0E936E816E0BD026
:1001E000FD0E936E816E07D0FB0E936E816E03D071
:1001F000F70E936E816E05A009D08150F00BF008C8
:1002000004E1059006C019F0066A2FD08150F00B6A
:10021000F00826E08150100B02E11A6A11D08150DB
:10022000200B03E1010E1A6E0BD08150400B03E14D
:10023000020E1A6E05D08150800B02E1030E1A6E79
:100240001A50040DF3501C6A1B6E036A07501B24DE
:10025000016E1C5003220150D5DE066E058005D0CC
:10026000072A0750040801E1076A046AFF0E936E2B
:1002700019C001F01200E824F76AF736910FF66E04
:10028000020EF7220A00F550FA6E0800F550F96EDA
:10029000D801E001E801F0011D2C01D003D0400E8F
:1002A0001E6E01D01E6A010E1C5C1E261E508009A7
:1002B0001F6E206A216E2CDF12001B50070A07E018
:1002C0000B0A0AE0060A10E0020A14E018D0010E38
:1002D0001C6E1D6EE1DF18D0206A010E216E18DF42
:1002E000020E1E6ECEDE10D0010E1C6E020E1D6EB2
:1002F000D3DF0AD0206A100E216E0ADF05D0010E6E
:10030000206E1BC021F004DF12000900F5520CE042
:10031000F6CF19F0F7CF1AF0F5CF1BF0CEDF19C0EA
:10032000F6FF1AC0F7FFF1D71200F86AD09E010E4F
:10033000086E186A176AC150C00B0F09C16E070E0C
:10034000B46E046A0590066A076A300E0C6E330EAE
:100350000D6E340E0E6E350E0F6E360E106E300EA4
:10036000116E126E136E146E156E166A000E926E7A
:10037000ECD625D7F19E25DF01C00BF0010E1C6ED7
:100380001D6E8ADF3A0EF66E000EF76EBEDF926AC1
:10039000020E896E0B5218E00B50230815E00B502B
:1003A0002A0812E008C01CF0020E1D6E75DF0BC09B
:1003B0001BF083DF036A0850110FE96E000E032063
:1003C000EA6E0BC0EFFF082A0B52D8B46ED00B5068
:1003D0002A08D8A46AD0096A096A0950040816E3F1
:1003E000036A0950110FE96E000E0320EA6EEFCF89
:1003F00019F0036A09500C0FE96E000E0320EA6E33
:10040000EF50195C01E002D0092AE7D7095005082E
:1004100029E1D7DE01C00BF0010E1C6E020E1D6E2D
:100420003BDF4C0EF66E000EF76E6FDF926A010E28
:10043000896E0A6A0B502A08ECE1010E086EEA6A1E
:10044000110EE96E000EEEDD0A000900F550EE6EA9
:100450000009FBE1096A0C0E1B6E2FDF320E1E6EC7
:1004600010DE23D0010E1C6E020E1D6E15DF5C0E19
:10047000F66E000EF76E49DF030E196EC80E1E6E83
:1004800000DE192EFBD7010E086E0A2AEA6A110E49
:10049000E96E000EC7DD0A000900F550EE6E000996
:1004A000FBE1096A0C0E1B6E08DF0B5215E00B50C6
:1004B000230812E10806036A0850110FE96E000EC6
:1004C0000320EA6E300EEF6E08C01CF0020E1D6EA7
:1004D000E3DE200E1B6EF1DE085202E1010E086E13
:1004E0000A50030809E16E0EF66E000EF76E0DDF7E
:0C04F0000A0E1E6EC6DDF7D73ED70300D3
:020000040030CA
:0E0000003FCC3E1E0087A1000FC00FE00F4056
:00000001FF
;PIC18F4550
;CRC=3BA6  CREATED="09-Mar-22 14:59"
